:1003750075A88AD2A9758915758D3C758BC4D28EE1
:08038500E4F58CF58AD28C220C
:03001B000202F7E7
:1002F700C0E0C0D075D000C005C006C007758D3CF2
:10030700758BC40518C3E518941474809480403520
:10031700751800C28CAF8CEFFEAD8AEDFFEF251686
:10032700F50FEE3515F50EE43514F50DE43513F537
:100337000C751600751500751400751300758C0083
:10034700758A00D28CD007D006D005D0D0D0E03245
:03000B0002035796
:10035700C0E0C0D0E42516F516E43515F515E5140B
:0E0367003401F514E43513F513D0D0D0E03294
:1000EC008F2C8E2B8D2A8C297BA07A867901780017
:1000FC0012005AE47B0AFAF9F812005AAF038F087F
:10010C00E47B107A27F9F8AF2CAE2BAD2AAC291270
:10011C00005AE47B0AFAF9F812005AAF038F12E482
:10012C007BE87A03F9F8AF2CAE2BAD2AAC29120080
:10013C005AE47B0AFAF9F812005AAF038F0AE47BEF
:10014C0064FAF9F8AF2CAE2BAD2AAC2912005AE4A4
:10015C007B0AFAF9F812005AAF038F0BE47B0AFA08
:10016C00F9F8AF2CAE2BAD2AAC2912005AE47B0A5D
:10017C00FAF9F812005AAF038F11E47B0AFAF9F876
:10018C00AF2CAE2BAD2AAC2912005AAF038F17221D
:10029500E4F508F512F510F517F511F50BF50AF566
:1002A50018F50FF50EF50DF50CF516F515F514F514
:1002B50013120375AF0FAE0EAD0DAC0C1200ECAD05
:1002C500087F01120228AD127F02120228AD0A7FB3
:1002D50003120228AD0B7F04120228AD117F05120F
:1002E5000228AD177F061202287F017E0012038DBA
:0202F50080C2C5
:10038D00EF1FAC0670011E4C600B007D027CC7DCBC
:05039D00FEDDFC80EB19
:0103A2002238
:1003A30010193F065B4F666D7D077F6F777C395E63
:0203B30079715E
:10022800EF14B40800505490023D75F003A4C58340
:1002380025F0C583730202550202590202610202C7
:100248006502026D02027102027902027DC2A0807B
:1002580002D2A0C2A1C2A28022C2A08002D2A0D291
:10026800A1C2A28016C2A08002D2A0C2A1D2A2803E
:100278000AC2A08002D2A0D2A1D2A274192DF8E697
:0D028800F5807F017E0012038DE4F58022D9
:0300000002019C5E
:0C019C00787FE4F6D8FD75812C0201E3A9
:10001E0075F008758200EF2FFFEE33FECD33CDCC99
:10002E0033CCC58233C5829BED9AEC99E58298401C
:10003E000CF582EE9BFEED9AFDEC99FC0FD5F0D6F9
:10004E00E4CEFBE4CDFAE4CCF9A88222B800C1B923
:10005E000059BA002DEC8BF084CFCECDFCE5F0CB61
:10006E00F97818EF2FFFEE33FEED33FDEC33FCEB9A
:10007E0033FB10D703994004EB99FB0FD8E5E4F955
:10008E00FA227818EF2FFFEE33FEED33FDEC33FC42
:10009E00C933C910D7059BE99A4007EC9BFCE99A36
:1000AE00F90FD8E0E4C9FAE4CCFB2275F010EF2F7B
:1000BE00FFEE33FEED33FDCC33CCC833C810D7077B
:1000CE009BEC9AE899400AED9BFDEC9AFCE899F8B6
:0E00DE000FD5F0DAE4CDFBE4CCFAE4C8F92249
:1001A800020295E493A3F8E493A34003F68001F2D6
:1001B80008DFF48029E493A3F85407240CC8C33358
:1001C800C4540F4420C8834004F456800146F6DF27
:1001D800E4800B01020408102040809003A3E47E11
:1001E800019360BCA3FF543F30E509541FFEE4931C
:1001F800A360010ECF54C025E060A840B8E493A3E3
:10020800FAE493A3F8E493A3C8C582C8CAC583CA0D
:10021800F0A3C8C582C8CAC583CADFE9DEE780BEC5
:0103B5000047
:00000001FF
